:100000000C9434000C943E000C943E000C943E0082
:100010000C943E000C943E000C943E000C943E0068
:100020000C943E000C943E000C943E000C943E0058
:100030000C943E000C943E000C943E000C943E0048
:100040000C943E000C943E000C943E000C943E0038
:100050000C943E000C943E000C943E000C943E0028
:100060000C943E000C943E0011241FBECFEFD8E04C
:10007000DEBFCDBF0E9440000C94AA020C94000089
:10008000539A80E090E084309105B4F45B9A2FE3BA
:1000900032E846E0215030404040E1F700C0000027
:1000A0005B982FE332E846E0215030404040E1F7D2
:1000B00000C000000196E7CF8FEF95EA2EE0815057
:1000C00090402040E1F700C000005B9A3FE342E827
:1000D00086E0315040408040E1F700C000005B986E
:1000E0009FE322E836E0915020403040E1F700C025
:1000F00000004FEF85EA9EE0415080409040E1F7DC
:1001000000C000005B9A2FE332E846E02150304007
:100110004040E1F700C000005B988FE392E826E0E2
:10012000815090402040E1F700C000005B9A3FE71B
:1001300044E08DE0315040408040E1F700C00000D5
:100140005B989FE724E03DE0915020403040E1F78C
:1001500000C000005B9A4FE382E896E04150804087
:100160009040E1F700C000005B982FE332E846E0E2
:10017000215030404040E1F700C000005B9A8FE31F
:1001800092E826E0815090402040E1F700C0000056
:100190005B983FE342E886E0315040408040E1F721
:1001A00000C000009FEF25EA3EE091502040304023
:1001B000E1F700C000005B9A4FE382E896E041500F
:1001C00080409040E1F700C000005B982FE332E8E8
:1001D00046E0215030404040E1F700C000005B9A0B
:1001E0008FE794E02DE0815090402040E1F700C07F
:1001F00000005B983FE744E08DE031504040804094
:10020000E1F700C000005B9A9FE322E836E09150DE
:1002100020403040E1F700C000005B984FE382E8E7
:1002200096E0415080409040E1F700C000005B9AAA
:100230002FE332E846E0215030404040E1F700C073
:1002400000005B988FE392E826E0815090402040C8
:10025000E1F700C000003FEF45EA8EE0315040403A
:100260008040E1F700C0000083E090E05B9A2FE758
:1002700034E04DE0215030404040E1F700C0000044
:100280005B982FE734E04DE0215030404040E1F7EB
:1002900000C000000197009749F78FEF95EA2EE024
:1002A000815090402040E1F700C000005B9A3FE39E
:1002B00042E886E0315040408040E1F700C0000055
:1002C0005B989FE322E836E0915020403040E1F710
:1002D00000C000005B9A4FE784E09DE04150804001
:1002E0009040E1F700C000005B982FE734E04DE05C
:1002F000215030404040E1F700C000005B9A8FE79A
:1003000094E02DE0815090402040E1F700C00000D3
:100310005B983FE744E08DE0315040408040E1F79A
:1003200000C000009FEF25EA3EE0915020403040A1
:10033000E1F700C0000083E090E05B9A4FE724E023
:100340003DE0415020403040E1F700C000005B98A4
:100350004FE724E03DE0415020403040E1F700C04D
:1003600000000197009749F74FEF85EA9EE0415062
:1003700080409040E1F700C000005B9A2FE332E834
:1003800046E0215030404040E1F700C000005B985B
:100390008FE392E826E0815090402040E1F700C0D2
:1003A00000005B9A3FE744E08DE0315040408040E0
:1003B000E1F700C000005B989FE724E03DE091502A
:1003C00020403040E1F700C000005B9A4FE382E834
:1003D00096E0415080409040E1F700C000005B98FB
:1003E0002FE332E846E0215030404040E1F700C0C2
:1003F00000008FEF95EA2EE0815090402040E1F719
:1004000000C000005B9A3FE342E886E03150404084
:100410008040E1F700C000005B989FE322E836E0EF
:10042000915020403040E1F700C000005B9A4FE758
:1004300084E09DE0415080409040E1F700C0000022
:100440005B982FE734E04DE0215030404040E1F729
:1004500000C000005B9A8FE392E826E08150904054
:100460002040E1F700C000005B983FE342E886E0EF
:10047000315040408040E1F700C000005B9A9FE3AC
:1004800022E836E0915020403040E1F700C0000003
:100490005B984FE382E896E0415080409040E1F75E
:1004A00000C000002FEF35EA4EE0215030404040C0
:1004B000E1F700C000005B9A8FE794E02DE08150E7
:1004C00090402040E1F700C000005B983FE744E027
:1004D0008DE0315040408040E1F700C000005B9A61
:1004E0009FE322E836E0915020403040E1F700C021
:1004F00000005B984FE382E896E0415080409040D6
:10050000E1F700C000005B9A2FE332E846E021509B
:1005100030404040E1F700C000005B988FE392E874
:1005200026E0815090402040E1F700C000003FEFFE
:1005300045EA8EE0315040408040E1F700C00000C5
:100540009FEF29E638E1915020403040E1F700C0AC
:08055000000097CDF894FFCFE5
:00000001FF
