:100000000C9434000C9449000C9449000C94490061
:100010000C9449000C9449000C9449000C9449003C
:100020000C9449000C9449000C9449000C9449002C
:100030000C9449000C9449000C9449000C9449001C
:100040000C9449000C9449000C9449000C9449000C
:100050000C9449000C9449000C9449000C944900FC
:100060000C9449000C94490011241FBECFEFD8E036
:10007000DEBFCDBF11E0A0E0B1E0E6ECF0E002C0F1
:1000800005900D92A230B107D9F70E944B000C9455
:1000900061000C940000259A2D9A2FEF83ED90E3D8
:1000A000215080409040E1F700C000002D982FEFD4
:1000B00083ED90E3215080409040E1F700C00000C4
:0600C000EBCFF894FFCF26
:0200C600E8034D
:00000001FF
